:020000040800F2
:10000000700800202D2300081504000817040008BC
:10001000210400082504000829040008000000004D
:100020000000000000000000000000002D04000897
:100030002F04000800000000310400083304000809
:1000400047230008472300084723000847230008E8
:1000500047230008472300084723000847230008D8
:1000600047230008472300084723000847230008C8
:1000700047230008472300084723000847230008B8
:1000800047230008472300084723000855040008B9
:1000900057040008472300084723000847230008A7
:1000A0004723000847230008472300084723000888
:1000B0004723000847230008472300084723000878
:1000C0004723000847230008472300084723000868
:1000D000472300086B04000847230008B904000800
:1000E00047230008472300085F040008472300084F
:1000F0004723000847230008472300084723000838
:100100004723000847230008472300084723000827
:100110004723000847230008472300084723000817
:100120004723000847230008472300084723000807
:10013000DFF80CD003F080FE0048004707030008FA
:100140007008002008B500214FF0006001F0A8FA07
:100150004FF4407001F06CFA25208DF8000000206B
:100160008DF8010003208DF8020001208DF80300B6
:10017000684601F062FA27208DF8000000208DF813
:10018000010002208DF8020001208DF8030068466E
:1001900001F053FA14208DF8000000208DF80100C2
:1001A0008DF8020001208DF80300684601F045FA41
:1001B0002A208DF8000000208DF8010001208DF824
:1001C0000200684601F039FA08BD10B50446012165
:1001D000042001F0B1FD3CB18648006880B220F0F7
:1001E00002008449086016E08248006880B240F04E
:1001F0000200804908608048006820F47F207E4922
:1002000008600846006840F44C30086089147A4859
:10021000001F01F088FB10BD2DE9F04105460C469A
:100220004FF00008274600262E4607E016F8012B5F
:100230004046411C01F0FF0870490A543800A7F1FC
:100240000101CFB2F2D122464FF48C716B4803F01A
:10025000C5F8022003F094F9BDE8F08110B5002440
:10026000674CF12021460870F2204870F320887016
:1002700064480079C87063488079087161480089D2
:10028000A1F805005F480068C1F807005D48007DDF
:10029000C8725C48807D08735A48008BA1F80D0035
:1002A00058480069C1F80F00564890F82400C874F7
:1002B000544890F8260008755248008DA1F81500A2
:1002C0005048006AC1F817004E4890F83400C876CC
:1002D0004C4890F8360008774A48008FA1F81D0076
:1002E0004848006BC1F81F00BE2081F82300BF20E2
:1002F00081F82400252044490870084601782046EA
:10030000FFF78AFF10BDFFF71DFF00F06EFF00F042
:10031000A2FC00F04DFC02F06DFE00203B4908708D
:10032000012000F08BFC4FF4E13000F0A6F94FF40F
:10033000E13000F02CFA01F03BF9C82001F066F939
:1003400001F0BAF864212F4801F038F864212D48F3
:10035000103001F033F864212A48203001F02EF8E3
:100360001BE06421274801F029F86421254810305A
:1003700001F024F864212348203001F01FF86421A3
:100380002048303001F01AF8FFF768FF3821204884
:1003900000F042FFC82001F039F9E2E770B50446E9
:1003A000002509E014F8012B2846691CCDB2134939
:1003B0000A54252D00D102E020780028F2D100BF98
:1003C00025224FF48C710D4803F008F8022003F049
:1003D000D7F870BD01B502E00098401E009000986B
:1003E0000028F9D108BD10B500214FF0006001F0E0
:1003F00057F910BD405C004004080140B7010020DF
:1004000060010020100400200400002023000020D0
:10041000000C0140704702E03DA003F06DFDFBE7DA
:1004200000BFFEE700BFFEE700BFFEE77047704772
:1004300070474548006820B143480068401E424963
:1004400008604248006820B140480068401E3F49AB
:1004500008607047704710B500F066FC10BD10B51D
:100460004FF4802001F059FF10BD10B540F2255126
:10047000374801F089FE012804D140F22551344863
:1004800001F0ACFE40F22771314801F07DFE0128F9
:1004900004D140F227712E4801F0A0FE08212C481B
:1004A00001F05CFE012806D10821294801F063FE15
:1004B000274801F0E9FD10BD70B500250024002695
:1004C00040F22551234801F05FFE012811D140F28E
:1004D0002551204801F082FE1E4801F0D5FDC4B22E
:1004E0001D481E49098844541C480088401C1B496B
:1004F00008800821174801F031FE012806D10821A3
:10050000144801F038FE134801F0BEFD70BD000034
:100510002D2D2D2D2D2D2D2D486172644661756C6C
:10052000745F48616E646C657228CFB5CDB3D3B289
:10053000BCFEB3F6B4ED292D2D2D2D2D2D2D2D2DF9
:100540002D2D2D0D0A0000001401002010010020A7
:100550000038014000480040DC0100200E0100206E
:1005600070B504460D46E1B2FA4801F089FD00BFBE
:100570004021F84801F0F2FD0128F9D1204670BD74
:100580002DE9F04104460D461646B04600272F4699
:100590000CE0208817F8011B204601F071FD00BF18
:1005A0004021204601F0DAFD0028F9D05FEA08007A
:1005B000A8F1010101F0FF08EBD1BDE8F08110B511
:1005C0000446E54800882146E44801F059FD00BF93
:1005D0008021E24801F0C2FD0028F9D010BD10B51D
:1005E00004464FF48051DE4801F09BF903E0207887
:1005F000FFF7E5FF641C20780028F8D14FF4805104
:10060000D74801F090F910BD00B585B0012144F242
:10061000040001F091FB4FF40070ADF810001820B9
:100620008DF8130003208DF8120004A9CD4801F0C5
:10063000CDF84FF48060ADF8100004208DF8130061
:1006400004A9C84801F0C2F84FF4E130009000203E
:10065000ADF80400ADF80600ADF80800ADF80C00E8
:100660000C20ADF80A006946BA4801F010FC0121DF
:10067000B84801F098FC05B000BD10B586B004463E
:100680000121052001F058FB0121880301F054FBF2
:100690004FF40070ADF8140001208DF816001820FA
:1006A0008DF8170005A9AF4801F090F84FF480606D
:1006B000ADF8140004208DF8170005A9A94801F031
:1006C00085F8A44801F0A0FB01940020ADF80800D3
:1006D000ADF80A00ADF80C00ADF810000C20ADF834
:1006E0000E0001A99B4801F0D2FB012240F22551E6
:1006F000984801F064FC0121964801F054FC402127
:10070000944801F038FD06B010BD10B586B004461F
:100710000121052001F010FB0121480401F019FB23
:100720000420ADF8140003208DF8160018208DF871
:10073000170005A98B4801F049F80820ADF814000E
:1007400004208DF8170005A9864801F03FF882487B
:1007500001F05AFB01940020ADF80800ADF80A0042
:10076000ADF80C00ADF810000C20ADF80E0001A99A
:10077000794801F08CFB012240F22551764801F0C6
:100780001EFC0121744801F00EFC06B010BD10B52E
:1007900086B004460121092001F0CEFA0121880427
:1007A00001F0D7FA4FF48060ADF8140001208DF805
:1007B000160018208DF8170005A9694801F006F801
:1007C0004FF40060ADF8140004208DF8170005A95F
:1007D000634800F0FBFF4FF48050ADF81400012097
:1007E0008DF8160010208DF8170005A95C4800F060
:1007F000EDFF4FF480515A4801F095F8574801F049
:1008000003FB01940020ADF80800ADF80A00ADF834
:100810000C00ADF810000C20ADF80E0001A94F48F7
:1008200001F035FB012240F225514C4801F0C7FB95
:1008300001214A4801F0B7FB4021484801F09BFCE8
:1008400006B010BD10B586B004460121112001F09C
:1008500073FA0121C80401F07CFA4FF48060ADF80E
:10086000140001208DF8160018208DF8170005A936
:100870003D4800F0ABFF4FF40060ADF814000420D9
:100880008DF8170005A9384800F0A0FF374801F09F
:10089000BBFA01940020ADF80800ADF80A00ADF8ED
:1008A0000C00ADF810000C20ADF80E0001A92F4887
:1008B00001F0EDFA012240F225512C4801F07FFBB6
:1008C00001212A4801F06FFB4021284801F053FC28
:1008D00006B010BD10B586B004460121312001F0EC
:1008E0002BFA0121080501F034FA4FF48050ADF8DD
:1008F000140001208DF8160018208DF8170005A9A6
:10090000194800F063FF0420ADF814008DF81700BB
:1009100005A9174800F05AFF164801F075FA01942E
:100920000020ADF80800ADF80A00ADF80C00ADF8F5
:1009300010000C20ADF80E0001A90E4801F0A7FA36
:1009400001210C4801F02FFB40210A4801F013FC63
:1009500006B010BD0038014000440040004800408F
:10096000000C01400008014000100140004C004014
:100970000014014000500040F0B503460D461646F5
:10098000002729460A2E03D0002008702846F0BD13
:1009900033B9302001F8010B002008702846F6E733
:1009A000002B03DA2D2001F8010B5B4242F210729A
:1009B0000DE093FBF2F404B937B104F1300001F813
:1009C000010B04FB123301270A2092FBF0F2002AEC
:1009D000EFDC002008702846D9E70FB470B586B068
:1009E00006460CA8019074E00B9800785C281CD196
:1009F0000B98401C0B9000786E2809D072280FD1FC
:100A00000D21304601F03CFB0B98401C0B900BE095
:100A10000A21304601F034FB0B98401C0B9003E098
:100A20000B98401C0B9000BF49E00B9800782528DC
:100A300040D10B98401C0B900078642818D0732884
:100A400033D1019810C801900BE02178304601F0B5
:100A500017FB00BF4021304601F080FB0028F9D091
:100A6000641C20780028F0D10B98401C0B9020E0EB
:100A7000019820C801900A2202A92846FFF77CFFAE
:100A800002AC0BE02178304601F0FAFA00BF4021B9
:100A9000304601F063FB0028F9D0641C2078002860
:100AA000F0D10B98401C0B9003E00B98401C0B906E
:100AB00000BF04E00B980178304601F0E1FA0B9892
:100AC000401C0B9000BF4021304601F047FB00283E
:100AD000F9D00B980078002886D106B070BC5DF87C
:100AE00014FB7CB5054600240020009001901BE01B
:100AF00000BF2021164801F031FB0028F9D014482E
:100B000001F0C2FA2146641C4DF82100601E5DF818
:100B10002000302804D3601E5DF82000392803D956
:100B20000CA003F0E9F9641E022CE1D301983038DF
:100B30000099303901EB810100EB4104AC4205D949
:100B400029460FA003F0D8F9FF207CBDE0B2FCE7F6
:100B5000003801400A0D506C6561736520656E7444
:100B600065722076616C6964206E756D62657220B5
:100B70006265747765656E203020616E642039008F
:100B80000A0D506C6561736520656E746572207620
:100B9000616C6964206E756D626572206265747740
:100BA00065656E203020616E6420256400000000C1
:100BB00010B5002001F024F80121C80501F0C9F8A2
:100BC00010BD03204249086070474248817A19B13C
:100BD00005213F4A116002E001213D4A1160704742
:100BE0000EB54FF4A06000F023FD4FF4802001F01B
:100BF00094FB4FF48020009008208DF80500012020
:100C00008DF80600684601F011FB14208DF80800ED
:100C100001208DF8090000208DF80A0001208DF8D0
:100C20000B0002A800F009FD2A208DF80800002022
:100C30008DF8090002A800F000FD0EBD10B50446B5
:100C400024B10821244800F06EFE03E00821224868
:100C500000F067FE10BD08B50121402001F06CF8DE
:100C60000820ADF8000003208DF8020010208DF858
:100C700003006946184800F0A9FD08BD10B5002121
:100C8000164801F066F800214FF6FD7001F054F8A7
:100C900010BD10B5124B18681B1D19681B1D1A6872
:100CA000A8B1104CA070030A2371030CA371030EAA
:100CB0002372A1720B0A23730B0CA3730B0E237404
:100CC000A274130A2375130CA375130E237610BD9B
:100CD0000001002050040020001801403FC8FE3AE7
:100CE000E8F7FF1F0900002010B501200B4908702C
:100CF000252298210A4802F08BFB4FF44051012035
:100D000002F0FDFB10BD002004E00021054A115453
:100D1000411CC8B22528F8DB7047000023000020E2
:100D200092010020B701002010B53748006837490C
:100D300008800846008800F4806035490988084228
:100D400006D04FF6FF303049086032494868804786
:100D50002E48008800F400502D490988084203D02D
:100D60004DF6FF70284908602848008800F480503C
:100D700027490988084206D04EF6FF7022490860CC
:100D8000002000F0BEF92148008800F400602049EE
:100D9000098808420CD02048007810B100F091F981
:100DA00002E0022000F0ADF94FF2FF701649086032
:100DB0001648008800F4007015490988084208D0D8
:100DC0004FF6FF501049086014480078401C134942
:100DD00008700E48008800F480700D4909880842A8
:100DE00006D04FF6FF6008490860072000F089F937
:100DF0000648008800F4004005490988084201D0EF
:100E000002F016F910BD0000445C004060000020B4
:100E1000520100206800002004010020240000206E
:100E200010B5FFF736FF002085490968887200F089
:100E30001FF90020834908604FF43F408249088031
:100E4000084600887F49091F086000207F49086024
:100E500010BD10B500207A49096888727849096880
:100E6000C8727B48C079764909684872002002F050
:100E700001FB4FF40071002002F014FB1021002050
:100E800002F025FB1821002002F087FC58210020E9
:100E900002F076FC002002F0AFFB6E4890F82C10B8
:100EA000002002F0C8FC002002F07BFB4FF4C06180
:100EB000012002F0F7FA9821012002F06EFC2521B2
:100EC000012002F0B8FC4FF44051012002F017FB62
:100ED0004FF4C061022002F0E5FA4FF48C71022059
:100EE00002F04EFC2521022002F07EFC202102208F
:100EF00002F0EDFA012055490860002001F0F3FFEF
:100F000010BD4F480068807A10B105204F49086035
:100F1000704704204D49086070477047704701468C
:100F200029B90120464A12681082002070474A48B9
:100F3000FCE710B504464949204601F0C0FC10BD4D
:100F400010B504464649204601F0B9FC10BD70B505
:100F500004460025062C1AD139480068007800F0B4
:100F60007F00012813D136480068407978B93448A9
:100F700000688078222802D1AFF23B0512E03048A9
:100F80000068807821280DD1AFF259050AE02C487D
:100F90000068007800F07F00212803D1032C01D1E4
:100FA000AFF285050DB9022070BD25480068856146
:100FB00000212348006841820020A8470020F3E771
:100FC0001F480068C178244801600020704700B5C0
:100FD00002461B480068007800F07F00212804D1F9
:100FE0000B2A02D1FFF7ECFF00BD0220FCE710B591
:100FF00004461C49204601F062FC10BD10B50446B1
:101000001949204601F05BFC10BD70B505460C483F
:101010000068C478042C01DD002070BD134800EB8B
:10102000C401284601F04BFCF7E70246002901DD28
:1010300002207047002A01DD0220FAE70020F8E7CD
:1010400048010020445C00405201002000010020C3
:101050009E40000868000020FC000020D400002012
:10106000CC000020BC000020C4000020DC000020D8
:1010700010B50120FFF7E2FD01244C480460002078
:101080004B49088008460088484908600020091D2F
:1010900008604FF4E05046490880084600884349FC
:1010A0000860002010BD10B50120404908600020F4
:1010B000091D0860FFF7C2FD03203C4908600020BD
:1010C00010BD10B53948006884B244F008043748B0
:1010D0000460006884B244F0040434480460FFF7FC
:1010E00070FD10BD10B53148006884B224F00404CE
:1010F0002E480460FFF769FD4FF43F402B4908601C
:1011000010BD70B50546072D01D02A480570294845
:101110000078082841D2DFE800F0040A1016212EDA
:101120004142FFF7DFFF0620224908703BE0FFF74E
:10113000D9FF04201F49087035E002201D4948707E
:10114000032008702FE01B484078401E1949487062
:101150000846407808B90420087024E01348006865
:1011600084B244F01004114804600520114908704D
:101170000A20487017E00F484078401E0D4948701B
:101180000846407840B90948006884B224F0100449
:10119000064804600620087005E000BF00BF062076
:1011A0000449087000BF00BF70BD0000405C0040F3
:1011B000520100200501002008B50121042000F0A3
:1011C000BBFD4FF40040ADF8000010208DF8030087
:1011D00003208DF802006946184800F0F7FA4FF432
:1011E0000041164800F09DFB08BD08B5012108200C
:1011F00000F0A2FD3820ADF8000010208DF80300AB
:1012000003208DF8020069460D4800F0DFFA38210E
:101210000B4800F088FB08BD73B50446BDF8041008
:10122000204600F071FBC0F10100C5B22A46BDF8AE
:101230000410204600F079FB7CBD0000000801404E
:10124000000C014070B504460D464FF48051CE4865
:1012500000F067FB2A462146CC48FFF791F94FF48E
:101260008051C94800F05FFB70BD10B502460B46C7
:1012700000210020022104E0545C0444A0B24C1C74
:10128000A1B29942F8DB10BDF0B589B00446202127
:1012900001A802F07EFC002500270026AA208DF878
:1012A000040055208DF8050004208DF80600F42078
:1012B0008DF807008DF8084080208DF80900062180
:1012C00001A8FFF7D2FF05462F12EEB28DF80A7083
:1012D0008DF80B60082101A8FFF7B4FF012009B0C9
:1012E000F0BD2DE9FC5F04468A4691464FF0000BA5
:1012F000002001900090BAF1090F5DDD2078AA2846
:1013000058D16078552855D1A078062852D1E07878
:10131000F6284FD1207980284CD151462046FFF73E
:10132000A4FFAAF102012046FFF79FFF83464FEA80
:101330002B2001900BF0FF000090AAF10100215C2E
:101340000098814238D1AAF10200215C01988142C3
:1013500032D199F804006179884229D1E088A9F84E
:10136000080099F8060012280DD1B9F9080002F01A
:101370008AFC07460022864B02F016FC054602F066
:1013800093FCC9F80C0099F8060011280DD1B9F9A1
:10139000080002F078FC054600227E4B02F004FCB7
:1013A000074602F081FCC9F80C000120BDE8FC9F53
:1013B0000020FBE70020F9E70020F7E72DE9F043E4
:1013C00089B004460D464FF00009202101A802F023
:1013D000E0FB0026B04600276F4805604FF4FA7125
:1013E0006E4802F0D6FB00206D490880AA208DF8D7
:1013F000040055208DF8050004208DF80600FE201D
:101400008DF8070020798DF8080080208DF80900FC
:10141000062101A8FFF729FF06464FEA2628F7B262
:101420008DF80A808DF80B70082101A8FFF70AFFDC
:101430000AE05B48017822465848FFF752FF18B18E
:10144000012009B0BDE8F083534800680028F0D1BE
:1014500000BFF6E72DE9F04304460E461546002787
:10146000B846B9462078AA2824D16078552821D1D9
:1014700031462046FFF7F9FEB11E2046FFF7F5FE84
:1014800007464FEA272807F0FF09701E205C4845F1
:101490000ED1B01E205C40450AD160792871A07938
:1014A0006871E079A871A06828600120BDE8F08328
:1014B0000020FBE70020F9E72DE9FF410026002787
:1014C000002400250020FFF7DFFE002034490880BB
:1014D0004FF4FA71314802F05CFB0A2000F096F8F4
:1014E00001254AE02846FFF7CFFE322000F08EF8B3
:1014F0002B48008802283EDD294801786A462748A3
:10150000FFF7A8FFA8B39DF80400264901EB0411DA
:101510000871244901EB0411009808609DF8060049
:10152000204901EB04118871BDF808001D4901EB49
:10153000041108819DF805001A4901EB0411487156
:10154000184901EB04110398C860601CC4B29DF8EF
:101550000410154802780078401C134B187013488B
:10156000815400200E4908804FF4FA710B4802F0B4
:1015700010FB701CC6B2681CC5B2642DB2DD3046CB
:1015800004B0BDE8F0810000000C014000480040BC
:10159000000059400088C34010010020DC010020F9
:1015A0000E010020100400200C0100200801002082
:1015B00030B51B4800684FF47A72B0FBF2F1B1F11C
:1015C000807F01D301201DE021F07F40401E4FF0BD
:1015D000E022506150170F22002807DA13071D0E72
:1015E000104B00F00F04241F1D5503E013071C0EC1
:1015F0000D4B1C5400BF00204FF0E02290610720EB
:101600001061002008B100BFFEE730BD01B50749F9
:101610000098086000BF054800680028FBD108BD9D
:101620002C01002018ED00E000E400E0140100208F
:1016300031490143314A1160704770B500210023E0
:101640000F22C4780CB32D4C246804F4E064C4F574
:10165000E064210AC1F10403CA40447804FA03F1AA
:101660008478144021430901254C0678A15504785B
:1016700004F01F050124AC4005786D114FF0E02601
:1016800006EB8505C5F8004109E0047804F01F0564
:101690000124AC401B4D0678761145F8264070BDFC
:1016A000194A0A400243154B1B1F1A60704739B193
:1016B000124A121D12680243104B1B1D1A6006E0ED
:1016C0000E4A121D126882430C4B1B1D1A60704794
:1016D000042808D14FF0E021096941F004014FF0DE
:1016E000E022116107E04FF0E021096921F00401D7
:1016F0004FF0E022116170470000FA050CED00E0A8
:1017000000E400E080E100E080FFFF1F10B5044628
:10171000CA48844208D10121042000F027FB00219F
:10172000042000F023FB46E0C548844208D1012193
:10173000082000F01BFB0021082000F017FB3AE016
:10174000C048844208D10121102000F00FFB002185
:10175000102000F00BFB2EE0BB48844208D1012191
:10176000202000F003FB0021202000F0FFFA22E0FF
:10177000B648844208D10121402000F0F7FA002148
:10178000402000F0F3FA16E0B148844208D101216C
:10179000802000F0EBFA0021802000F0E7FA0AE058
:1017A000AC48844207D10121801500F0DFFA002106
:1017B000A01500F0DBFA10BD10B50121084600F0BD
:1017C000D5FA0021012000F0D1FA10BD2DE9F04139
:1017D000024600250026002000230024002791F85F
:1017E00003C00CF00F0591F803C01CF0100F03D0DC
:1017F00091F802C04CEA050591F800C0BCF1000F59
:1018000031D0146800202BE04FF0010C0CFA00F3EB
:10181000B1F800C00CEA03069E4220D183004FF0CD
:101820000F0C0CFA03F7BC4305FA03FC4CEA040462
:1018300091F803C0BCF1280F06D14FF0010C0CFA4F
:1018400000FCC2F814C00AE091F803C0BCF1480FD4
:1018500005D14FF0010C0CFA00FCC2F810C0401C7E
:101860000828D1D31460B1F800C0BCF1FF0F34DDFB
:10187000546800202EE000F1080C4FF0010808FA2F
:101880000CF3B1F800C00CEA03069E4221D183009C
:101890004FF00F0C0CFA03F7BC4305FA03FC4CEABB
:1018A000040491F803C0BCF1280F05D100F1080C25
:1018B00008FA0CF8C2F8148091F803C0BCF1480F84
:1018C00007D100F1080C4FF0010808FA0CF8C2F833
:1018D0001080401C0828CED35460BDE8F0814FF63C
:1018E000FF710180022181700421C170704702469E
:1018F000002093680B4201D0012000E000207047D7
:101900000146886880B2704702460020D3680B42C7
:1019100001D0012000E0002070470146C86880B275
:10192000704701617047416170470AB1016100E091
:1019300041617047C16070474FF480320A43826151
:101940008161826182698269704702460020424B50
:1019500018684FF68073184040EA021008433E4B67
:10196000186070473D49C8617047F0B50A460023CA
:1019700000240021002500F00046B6F1004F02D1FE
:10198000354EF16901E0344E7168C0F3034583B20E
:1019900000F44016B6F5401F08D121F070612E4EBC
:1019A000766826F070662C4F7E6012E000F4801698
:1019B000B6F5801F06D1032606FA05F4A14341F0CF
:1019C000706106E0460D360103FA06F6B14341F0B8
:1019D000706122B1460D360103FA06F6314300F07C
:1019E0000046B6F1004F02D11B4EF16101E01A4EE4
:1019F0007160F0BD30B500228B071C0F0F2303FA76
:101A000004F2154B08338C1053F824309343124CD6
:101A100008348D1044F8253023468C1053F82430B8
:101A20008C07240F00FA04F423430B4C08348D1068
:101A300044F8253030BD0A4908607047000801406D
:101A4000000C01400010014000140140001801404A
:101A5000001C014000200140000001400000204225
:101A6000DC002042DD48006840F00100DB490860EE
:101A700008464068DA490840D84948600846006886
:101A8000D8490840D54908600846006820F48020FD
:101A900008600846406820F4FE0048604FF41F00CC
:101AA00088607047CD49096821F48031CB4A1160C4
:101AB0001146096821F480211160B0F5803F03D000
:101AC000B0F5802F0ED106E0C449096841F4803199
:101AD000C24A116007E0C149096841F4A021BF4A28
:101AE000116000E000BF00BF704710B50146002242
:101AF000002300204A11012A02D1B84C236806E0D5
:101B0000022A02D1B54C236A01E0B44C636A01F0A9
:101B10001F02012494401C4201D0012000E000205B
:101B200010BD38B5002000900024002500BF3120F2
:101B3000FFF7DBFF05460098401C00900098B0F5C9
:101B4000A06F01D0002DF2D03120FFF7CEFF08B1F9
:101B5000012400E00024204638BD014600209F4AB1
:101B6000106820F0F80040EAC100106070479E49FC
:101B70000860704702460020984B586820F47C109B
:101B800042EA01031843954B58607047964908662E
:101B9000704701460020914A506820F00300084336
:101BA000506070478D48406800F00C007047014657
:101BB00000208A4A506820F0F000084350607047C7
:101BC00001460020854A506820F4E06008435060D8
:101BD000704701460020814A506820F4605040EA76
:101BE000C1005060704729B17C4A527A02437B4B56
:101BF0005A7204E0794A527A8243784B5A7270479B
:101C00007A490860704701460020744A506820F401
:101C100040400843506070470021754A11706F4A78
:101C200082F82010012802D0042808D103E0012105
:101C30006F4A117004E005216D4A117000E000BF89
:101C400000BF70476B49086070476449096A0143E7
:101C5000624A11627047674944390860704730B57D
:101C600000210022002400235C4D6D6805F00C016A
:101C700021B1042905D0082923D105E05E4D056076
:101C800022E05D4D05601FE0544D6D6805F4701253
:101C9000524D6D6805F48034022505EB92421CB963
:101CA000564D554305600BE04C4D6D6815F4003FF3
:101CB00003D0524D5543056002E04F4D554305603A
:101CC00002E04D4D056000BF00BF444D6D6805F05A
:101CD000F00109094A4D6B5C0568DD4045603F4DE8
:101CE0006D6805F4E061090A454D6B5C4568DD40AF
:101CF00085603A4D6D6805F46051C90A404D6B5CD2
:101D00004568DD40C560354D6D6805F44041890B7F
:101D10003C4D6B5CC568B5FBF3F5056130BD29B181
:101D20002E4A526902432D4B5A6104E02B4A5269F4
:101D300082432A4B5A61704729B1284A926902436B
:101D4000264B9A6104E0254A92698243234B9A61AB
:101D5000704729B1214AD2690243204BDA6104E07D
:101D60001E4AD26982431D4BDA61704729B11B4A72
:101D7000D2680243194BDA6004E0184AD268824301
:101D8000164BDA60704729B1144A12690243134BAB
:101D90001A6104E0114A12698243104B1A617047BC
:101DA00014494039086070470F49C86470470B49AF
:101DB000C87170470948406A40F08070074948621E
:101DC000704701460020054A92680A4201D001206E
:101DD00000E00020704701498872704700100240FF
:101DE0000000FFF8FFFFF6FE00004242D80042422A
:101DF000201002408004424200127A0000093D0097
:101E0000180100202801002010B50446FB48844238
:101E100009D101218803FFF7A9FF00214FF4804079
:101E2000FFF7A4FF32E0F648844209D101214804BB
:101E3000FFF7A9FF00214FF40030FFF7A4FF25E0D2
:101E4000F048844209D101218804FFF79CFF00215A
:101E50004FF48020FFF797FF18E0EB48844209D148
:101E60000121C804FFF78FFF00214FF40020FFF786
:101E70008AFF0BE0E548844208D101210805FFF7FD
:101E800082FF00214FF48010FFF77DFF10BD2DE988
:101E9000F04786B005460E460024A24600BFA14684
:101EA0000027B08900B100BF2F462C8A4CF6FF7086
:101EB0000440F08804432C82AC894EF6F3100440B1
:101EC000B08831890843718908430443AC81AC8AE6
:101ED0004FF6FF400440B0890443AC8201A8FFF7ED
:101EE000BEFEC648874202D1DDF810A001E0DDF851
:101EF0000CA0A88910F4004F08D00AEBCA0000EB30
:101F00000A1031684900B0FBF1F807E00AEBCA009B
:101F100000EB0A1031688900B0FBF1F86420B8FBCF
:101F2000F0F004012009642101FB1089A88910F454
:101F3000004F08D0322000EBC900B0FBF1F000F0F8
:101F40000700044308E0322000EB09106421B0FBD5
:101F5000F1F000F00F0004432C8106B0BDE8F087DB
:101F60004FF41651016000218180C18001810C2154
:101F7000418100218181704710B502460020108AFE
:101F80004FF2FF0318400B884C8823438C8823436F
:101F9000CC8823431843108210BD0021018041806A
:101FA0008180C180704721B1828942F400528281D0
:101FB00004E082894DF6FF731A4082817047F0B5C4
:101FC00003460024002600250020A1F510676A3F83
:101FD00000D100BF1846C1F3421401F01F060127CB
:101FE00007FA06F5012C01D10C3004E0022C01D1D6
:101FF000103000E014301AB107682F43076002E088
:102000000768AF430760F0BD1AB1838A0B43838230
:1020100002E0838A8B4383827047028A4FF6F07313
:102020001A400282028A0A430282704782894FF272
:10203000FF731A40828182890A438281704721B1ED
:10204000828942F00202828104E082894FF6FD73A8
:102050001A4082817047028A4FF6DF731A4002826B
:10206000028A0A430282704721B1028A42F4804206
:10207000028204E0028A4BF6FF731A400282704724
:10208000C1F308028280704701468888C0F30800C7
:102090007047818941F0010181817047028BD2B282
:1020A0000283028B42EA012202837047028B02F410
:1020B0007F420283028B0A430283704721B1828AE6
:1020C00042F02002828204E0828A4FF6DF731A40D7
:1020D0008282704721B1828A42F01002828204E03B
:1020E000828A4FF6EF731A408282704721B1828A4A
:1020F00042F00802828204E0828A4FF6F7731A40A7
:102100008282704721B1828942F40042828103E0D9
:102110008289C2F30E028281704721B1828A42F421
:102120000062828204E0828A4FF2FF731A40828248
:102130007047828A4FF6FB731A408282828A0A4372
:102140008282704721B1828A42F00202828204E0D8
:10215000828A4FF6FD731A40828270470246002041
:10216000B1F5007F00D100BF13880B4201D00120E0
:1021700000E00020704701F40072B2F5007F00D14A
:1021800000BFCA430280704770B502460024002396
:1021900000250020A1F510666A3E00D100BFC1F302
:1021A000421501F01F03012606FA03F3012D02D1A7
:1021B0009689334006E0022D02D1168A334001E0B1
:1021C000968A33400C12012606FA04F4168834402D
:1021D00013B10CB1012000E0002070BD10B5002249
:1021E0000023A1F510646A3C00D100BF0A1201244B
:1021F0009440A3B2DC43048010BD000000380140CD
:102200000044004000480040004C004000500040A6
:10221000002044490860091D0860091D0860091D67
:10222000086041483F4914310860704700213D492A
:102230008279002A3AD00A46126803689A430B460C
:102240001A600A1D126803689A430B1D1A6002790E
:1022500011440A6803681A430A60324A0832126855
:1022600003689A432F4B08331A601A1D12680368DB
:102270009A432C4B0C331A604279102A0ED11A1F44
:10228000126803681A43274B08331A601A1D126834
:1022900003681A43234B0C331A600DE0214942793D
:1022A00011440A6803681A430A6005E00279114480
:1022B0000A6803689A430A6070470021016001714F
:1022C0000C21417100218171704716491031096854
:1022D0000143144A10321160704701460020114A30
:1022E000143212680A4201D0012000E00020704739
:1022F0000C49143108607047014600200022094B48
:102300001B6803EA0102074B14331B680B4202D01F
:102310000AB1012000E00020704702491431086032
:102320007047000000040140FFFF0F00064880478F
:1023300006480047FEE7FEE7FEE7FEE7FEE7FEE7AA
:10234000FEE7FEE7FEE7FEE72D2400083101000866
:102350000CB50020019000906B48006840F480307C
:102360006949086000BF6848006800F400300090C8
:102370000198401C0190009818B90198B0F5A06F21
:10238000F1D16148006810F4003F02D001200090B4
:1023900001E0002000900098012842D15B480068CD
:1023A00040F01000594908600846006820F003001A
:1023B00008600846006840F0020008605248406823
:1023C000514948600846406848600846406840F403
:1023D000806048600846406820F47C1048600846E9
:1023E000406840F4E81048600846006840F080709B
:1023F000086000BF4448006810F0007FFAD04248EF
:10240000406820F00300404948600846406840F0BA
:102410000200486000BF3C48406800F00C000828FB
:10242000F9D10CBD10B5FFF793FF10BD10B53648BC
:10243000006840F0010034490860084640683449AB
:1024400008403149486008460068324908402E4932
:1024500008600846006820F480200860084640684C
:1024600020F4FE0048604FF41F008860FFF7DAFF99
:102470004FF000602849086010BD10B50021002011
:102480000022214B5B6803F00C0121B1042906D026
:10249000082928D107E0214B214C236027E01F4B5E
:1024A0001F4C236023E0184B5B6803F47010164B3D
:1024B0005B6803F48032022303EB904022B9194B8E
:1024C0004343174C23600DE00F4B5B6813F4003F50
:1024D00004D0144B4343124C236003E00F4B43439F
:1024E0000F4C236003E00D4B0D4C236000BF00BF79
:1024F000054B5B68C3F303130B4CE15C084B1B6893
:10250000CB40074C236010BD001002400020024069
:102510000000FFF8FFFFF6FE08ED00E000127A0071
:102520002C01002000093D003001002010B50446B8
:102530002CB90120FE4909680882002010BDFD4920
:10254000096808688047FA4800680A30F6E710B55D
:10255000F7480068C078F8494978884213DCF448A5
:102560000068807878B9F2480068808858B9F048E7
:102570000068C078EE4909688872EE4909684868C1
:102580008047002010BD0220FCE710B504462CB99E
:102590000120E74909680882002010BDE549096863
:1025A00088688047E24800680C30F6E710B5E04BD9
:1025B0001B68D978DE4B1B685879E04B1B689A6919
:1025C00090470446DA480068807AE8B13CB9D848B8
:1025D0000068007918B9D6480068807808B10220F0
:1025E00010BD8CB9D3490968C8688047D0480068D5
:1025F0004079CF490968C872CD480068C078CC4995
:10260000096808730020EBE70220E9E710B50446EB
:102610002CB90220C64909680882002010BD00209C
:10262000C7490880C2480068007810F07F0F1CD1AD
:10263000BF490968487A10F0200F05D0C0490978D1
:1026400041F00201BE4A117010F0400F06D0BC49A3
:10265000097801F0FE01BA4A117005E0B84909781D
:1026600041F00101B64A117036E0B14800680078C7
:1026700000F07F00012801D1B148CFE7AC480068E5
:10268000007800F07F00022824D1A94A126851790D
:1026900001F00F0011F0800F0DD0AA4A52F820204F
:1026A00002F03002102A14D1A54A127842F0010239
:1026B000A34B1A700DE0A34A52F8202002F44052B6
:1026C000B2F5805F05D19E4A127842F001029C4B20
:1026D0001A7001E00020A1E796490968086980475F
:1026E00097489BE72DE9F04791480068007800F093
:1026F0007F08B8F1000F0AD18D480068407A00F0D9
:10270000DF008B49096848720020BDE8F087B8F106
:10271000020F76D186480068408818B9844800685E
:10272000007908B10220F0E7DFF80C9280480068D9
:10273000477927F080052C467D480068407910F0E5
:10274000800F05D07F4850F8240000F0300604E0E8
:102750007C4850F8240000F4405699F80000A84244
:1027600004D91EB172480068807A08B90220CCE70B
:1027700017F0800F0ED0734850F8240000F030009E
:10278000102837D1E0B200F0D1FFE0B2302100F0E4
:102790009EFE2FE06B4850F8240000F44050B0F546
:1027A000805F27D1A4B9684A92F82C10E0B201F0FA
:1027B00042F8644951F824104BF68F7201EA020086
:1027C00080F4805080F400505E4941F8240011E00C
:1027D000E0B200F096FF5B4951F824104BF68F727F
:1027E00001EA020080F4805080F40050554941F81D
:1027F000240000BF4F49096848698047002084E7EA
:10280000FFE700BF022080E72DE9F041484800685B
:10281000467926F080073C4645480068407910F02C
:10282000800F05D0474850F8240000F0300504E040
:10283000444850F8240000F440553F480078A04236
:1028400008D93B480068408820B91DB13848006865
:10285000807A10B90220BDE8F08116F0800F0CD00C
:10286000384951F8241048F6BF7201EA020080F09E
:102870001000344941F824000CE0324951F824108A
:102880004BF68F7201EA020080F480502D4941F826
:10289000240000BF27490968886980470020DAE7DB
:1028A00010B523480068407A40F0200020490968AC
:1028B000487220490968C8698047002010BD10B5DA
:1028C00002461B480068438A32B98888C01A184CEF
:1028D00024682082002010BD08681844FBE72DE919
:1028E000F0411348006800F110042688A068C0B1C8
:1028F000BEB1A588B54200D93546A8B2A1688847BF
:1029000007462088401B2080608828446080002083
:1029100000F05DFF8046AAB24146384600F078FDDF
:1029200000BF2088D8B14FF44050084908800FE01C
:102930004801002054010020640000204C010020C8
:1029400042010020005C0040680000205801002087
:102950000021084600F048FF3020F949088020880F
:10296000A188884204DB0320F6490968087218E050
:102970002088002804DD0520F2490968087210E06B
:10298000208870B90620EF49096808720021EE48D6
:10299000006880B2801CED4A42F810103020E849EF
:1029A0000880BDE8F0812DE9F047E648006800F1B5
:1029B00010052E88E3480068077AD6B9042F18D18D
:1029C000E348007801280FD10021DF48006880B279
:1029D000801CDE4A42F810103020D949088000BF20
:1029E0000020DB49087003E007271020D449088045
:1029F00027E0AC88A64201D8042000E00220074668
:102A0000B44200D93446A0B2A96888478046002065
:102A100000F0D1FE8146A2B24946404600F0DEFCFD
:102A2000A1B2002000F0E0FE2888001B2880688802
:102A3000204468803020C24908800002C5490880CF
:102A400000BFC04909680F72BDE8F08770B5022663
:102A5000BC4800684478BB480068007810F07F0FDD
:102A60004AD1092C03D1FFF772FD064665E0052C1B
:102A700014D1B4480068C0787F280BDCB1480068E6
:102A8000807838B9AF480068808818B9AD480068C8
:102A9000807A08B108256BE000264EE0032C14D1A3
:102AA000A8480068C07801280DD1A6480068808831
:102AB00048B9A4480068407A10F0200F03D0FFF70F
:102AC000EFFE064639E0022637E0012C35D19D485D
:102AD0000068C07801280DD19A480068808848B9FC
:102AE00098480068407A10F0200F03D0FFF7FAFDF5
:102AF000064622E0022620E092480068007800F0B6
:102B00007F00012805D10B2C17D1FFF74FFD06469A
:102B100013E08C480068007800F07F0002280BD199
:102B2000012C03D1FFF7DEFD064606E0032C04D19D
:102B3000FFF76AFE064600E002264EB1E0B2864A82
:102B40001268516988470646032E01D109250FE016
:102B50000EB108250CE0062500217B48006880B2F4
:102B6000801C7A4A42F8101030207549088000BF56
:102B7000744909680D7270BD2DE9F84F71480068FD
:102B800045780027BA46062D1AD16E4800680078AD
:102B900010F07F0F13D16B4909688878012803D1A1
:102BA0006D490968CF690AE0022803D16A490968BA
:102BB0000F6A04E0032802D1674909684F6A97E069
:102BC000002D65D15F4800684088002860D15D48CD
:102BD0000068C08802285BD15A4800680079002844
:102BE00056D158480068007810F07F0F06D155483C
:102BF0000068808810B9AFF2EB5779E0514800685F
:102C0000007800F07F00012811D14E490968487909
:102C1000514909688A6900219047002868D14948CC
:102C20000068807A002863D0AFF21F6760E04548F3
:102C30000068007800F07F00022859D14148006800
:102C4000407900F00F063F480068407900F07009B5
:102C50003C480068407910F0800F06D03A48503860
:102C600050F8260000F0300805E03748503850F89A
:102C7000260000F4405839480078B04238D9B9F1FC
:102C8000000F35D1B8F1000F32D0AFF27F672FE0DF
:102C9000082D08D12B480068007810F07F0F27D14D
:102CA000AFF2777724E00A2D22D126480068007819
:102CB00000F07F0001281BD122480068807AB8B15B
:102CC00020480068408898B91E480068007978B9A3
:102CD0001C480068C08801280AD11A490968487947
:102CE0001D4909688A690021904708B9AFF26577E4
:102CF00057B114480068A0F812A012480068876114
:102D00000020B84700240FE00E4A12685078124A9B
:102D10001268116988470446032C05D10920094926
:102D200009680872BDE8F88F06480068008AA0F5B7
:102D30007F41FF3914D10920024909680872F1E77F
:102D40005A01002048010020505C00400060004013
:102D500040010020580100204C01002064000020A8
:102D6000022C03D099480068008A20B908209749AE
:102D700009680872D6E795480068007810F0800F5F
:102D80003CD092480068C088009090480068008A53
:102D90000099884204D98D4900980968088223E087
:102DA0008A480068008A89490968C98888421BDA0C
:102DB00086480068008A8649096891F82C10884284
:102DC00003DA0020834908700EE080480068008A1A
:102DD0007F49096891F82C1090FBF1F201FB120079
:102DE00010B901207B4908707948006890F82C10D0
:102DF000764800688182FFF7D6FD06E0032073491C
:102E00000968087200037449088000BF8AE710B59A
:102E1000724890F82C10002000F00DFD6B480068FF
:102E2000007A082805D140026B49088010206C49BF
:102E3000088066480068007A092801D1012010BD89
:102E40000020FCE708B56748006880B2001D6649AD
:102E500031F8100080B201EB400000905B48006840
:102E6000007A09282FD0009800785849096808701E
:102E70000098401C009000980078544909684870F8
:102E80000098401C00900098801C0090009931F838
:102E9000020B009100F06BFE4C49096848800098D5
:102EA000801C0090009931F8020B009100F05FFE49
:102EB0004649096888800098801C00900098008826
:102EC00042490968C88001204049096808723F48A2
:102ED0000068C08810B9FFF7B9FD01E0FFF74CFEAC
:102EE000FFF795FF08BD30B50146404B1A7800202A
:102EF0000FE0C3B23B4C503C54F8233048F68F747B
:102F00002340C4B22343C4B2364D503D45F824306B
:102F1000401C9042EDD341F08003324C241F2360CB
:102F200030BD10B529480068047A022C01D0042C69
:102F300005D1FFF738FD25480068047A1CE0062C0F
:102F400019D122480068407805280ED11F48006832
:102F5000007810F07F0F08D11C490968C878FFF786
:102F6000C2FF23490968086A8047194909688868C7
:102F70008047082400E00824144909680C72FFF710
:102F800046FF10BD10B511480068047A032C01D02B
:102F9000052C05D1FFF7A3FC0C480068047A0EE06D
:102FA000072C05D10A490968C8688047082406E04B
:102FB000022C01D0042C01D1082400E0082403498C
:102FC00009680C72FFF723FF10BD7047480100200D
:102FD0004C01002040010020580100206800002022
:102FE0005A010020505C0040006000406400002056
:102FF0005401002010B508480849086002200968FB
:1030000008720748074908600748084908600549E9
:1030100009680868804710BD50040020480100205E
:10302000680000204C01002098000020540100207E
:1030300010B5002469E147F6FF70E1490860E148F6
:10304000008800F00F00E04908700846007800286A
:103050007DD1DB484438006800F44050DB490880EB
:10306000D7484438006800F03000D9490880D44976
:10307000443909684BF68F7201EA020080F400506F
:10308000CF4944390860096848F6BF7201EA020076
:1030900080F02000CA4944390860CA48008810F00E
:1030A000100F38D10846006848F60F710840C4492F
:1030B00044390860FFF735FFC149443909684BF6C8
:1030C0008F7201EA0200C149098811F4805F01D0C2
:1030D00080F48050BD49098811F4005F01D080F46C
:1030E0000050B74944390860096848F6BF7201EAE0
:1030F0000200B749097811F0100F01D080F01000DC
:10310000B349097811F0200F01D080F02000AC49BC
:103110004439086010BDAA484438006884B214F0ED
:10312000800F3BD0A6484438006848F60F7108402D
:10313000A34944390860FFF7F4FEA14944390968FE
:103140004BF68F7201EA0200A049098800E0A3E073
:1031500011F4805F01D080F480509C49098811F4FB
:10316000005F01D080F40050954944390860096837
:1031700048F6BF7201EA02009549097811F0100F74
:1031800001D080F010009249097811F0200F01D091
:1031900080F020008A4944390860BBE714F4006FCE
:1031A0003BD0874844380068C0F30E0048F68F7162
:1031B0000840834944390860FFF744FE8049443998
:1031C00009684BF68F7201EA02008049098811F400
:1031D000805F01D080F480507C49098811F4005F41
:1031E00001D080F40050764944390860096848F6F7
:1031F000BF7201EA02007649097811F0100F01D080
:1032000080F010007249097811F0200F01D080F091
:1032100020006B49443908607CE714F4004F74D0F7
:10322000674844380068C0F30E0048F68F710840C4
:10323000634944390860FFF7A5FE614944390968CC
:103240004BF68F7201EA02006049098811F4805F31
:1032500001D080F480505D49098811F4005F01D0ED
:1032600080F40050564944390860096848F6BF7236
:1032700001EA02005649097811F0100F01D080F0E0
:1032800010005349097811F0200F01D080F0200080
:103290004B49443908603DE74B4800784849443978
:1032A00051F8200084B214F4004F15D0464800783D
:1032B00051F82000C0F30E0048F68F7108404249D3
:1032C00009783F4A443A42F821003F490978491EAB
:1032D000404A52F82100804714F0800F15D03A4838
:1032E00000783749443951F8200048F60F710840FA
:1032F00035490978324A443A42F82100324909787E
:10330000491E354A52F8210080472D48006880B296
:103310002C49088010F4004F7FF48DAE00BFF9E611
:1033200010B5002443E047F6FF70254908602548A2
:10333000008800F00F0024490870084600782049F2
:10334000443951F8200084B214F4004F16D01E48BE
:10335000007851F82000C0F30E0048F68F71084045
:1033600019490978164A443A42F821001649097861
:10337000491E184A52F82100804718E014F0800FC7
:1033800015D0114800780E49443951F8200048F60C
:103390000F7108400C490978094A443A42F8210063
:1033A00009490978491E0C4A52F82100804704480F
:1033B000006880B20349088010F4004FB3D110BDFB
:1033C000445C0040600000204401002058010020BF
:1033D0005A0100204400002028000020F0B51446C7
:1033E00004F1010C4FEA6C07DFF848C00CEB410315
:1033F0003D460AE00678401C90F800C046EA0C22E0
:1034000023F8022B9B1C401C6D1E002DF2D1F0BD39
:10341000F0B5561C7510074E06EB41042B4605E02F
:1034200034F8047B20F8017B401C5B1E002BF7D195
:10343000F0BD000000600040F84908607047F748A0
:10344000006880B27047F549091D08607047F3486D
:10345000001D006880B27047F0480830006880B2F4
:103460007047EE490C3108607047EC480C3000683A
:1034700080B270474FF6F8710140E84A103211608F
:103480007047E6481030006880B27047E34A403A1F
:1034900042F8201070470146E048403850F82100BB
:1034A00080B27047DD4A403A52F8202048F68F1328
:1034B0001A400A43D94B403B43F82020704701464D
:1034C000D648403850F8210000F4C060704710B56D
:1034D000D24B403B53F8203048F6BF7403EA040255
:1034E00011F0100F01D082F0100211F0200F01D066
:1034F00082F02002C94B403B43F8202010BD10B59C
:10350000C64B403B53F820304BF68F7403EA04025D
:1035100011F4805F01D082F4805211F4005F01D079
:1035200082F40052BD4B403B43F8202010BD10B543
:1035300002460B461046FFF7AEFF0446012B06D1AC
:1035400024F48050B549403941F8220007E0022BAD
:1035500005D124F01000B149403941F8220010BDD6
:103560000146AE48403850F8210000F03000704766
:103570000146AA48403850F8210000F440507047F6
:10358000A64A403A52F8202048F6BF7302EA0301E7
:1035900081F0100181F02001A04A403A42F8201049
:1035A00070479E4A403A52F820204BF68F7302EA49
:1035B000030181F4805181F40051984A403A42F865
:1035C000201070479549403951F8201041F480711E
:1035D00048F68F721140914A403A42F820107047E5
:1035E0008E49403951F8201048F68F6211408B4ABD
:1035F000403A42F8201070478849403951F820106D
:1036000048F68F621140854A403A42F820107047D0
:103610008249403951F8201041F4807148F68F7288
:1036200011407E4A403A42F8201070477B494039A9
:1036300051F8201041F4807148F68F721140774A9A
:10364000403A42F8201070477449403951F8201030
:1036500048F68F621140714A403A42F82010704794
:1036600001466E48403850F8210000F03000102824
:1036700001D1012070470020FCE70146674840382F
:1036800050F8210000F44050B0F5805F01D10120D6
:1036900070470020FCE76149403951F82010C1F320
:1036A0000E0148F68F7211405C4A403A42F82010F1
:1036B00070475A49403951F8201048F60F721140AE
:1036C000564A403A42F8201070475449403951F860
:1036D000201048F68F72114041F480414F4A403A21
:1036E00042F8201070474D49403951F8201048F6F3
:1036F0008F72114041F04001484A403A42F8201090
:1037000070474649403951F8201011F4804F0CD0D1
:103710004249403951F8201048F68F72114041F467
:1037200080413E4A403A42F8201070473B494039B8
:1037300051F8201011F0400F0CD03849403951F8A1
:10374000201048F68F72114041F04001334A403A50
:1037500042F820107047314A403A52F8202048F68B
:103760008F731A400A432D4B403B43F8202070478B
:1037700001462A48403850F8210000F00F007047F9
:1037800010B54A105300254A1032126892B202EB6B
:10379000C002234C44F8123010BD10B54A1053003B
:1037A0001E4A1032126892B202EBC002121D1C4C6B
:1037B00044F8123010BD014618481030006880B23D
:1037C00000EBC100164A32F8100080B27047014683
:1037D00012481030006880B200EBC100001D104A92
:1037E00032F8100080B270470C4A1032126892B260
:1037F00002EBC002921C0A4B43F8121070470246BB
:103800003E290FDD481111F01F0F01D1431E98B260
:103810004FF4004343EA802313600BE0405C004018
:1038200000600040481011F0010F01D0431C98B215
:1038300083021360704710B50246D048006880B21A
:1038400000EBC200801DCE4C04EB40033E290BDD93
:10385000481111F01F0F01D1441EA0B24FF40044D3
:1038600044EA80241C6007E0481011F0010F01D0E9
:10387000441CA0B284021C6010BD0146BF48006811
:1038800080B200EBC100801CBD4A32F81000C0F3CA
:10389000090070470146B948006880B200EBC100DA
:1038A000801DB74A32F81000C0F30900704730B5E8
:1038B0004B105C00B14B1B689BB203EBC003B04DD7
:1038C00045F8134053105C00AC4B1B689BB203EBF4
:1038D000C0031B1D45F8134030BD10B54A105300FE
:1038E000A64A126892B202EBC002A54C44F812300C
:1038F00010BD10B54A105300A04A126892B202EBF4
:10390000C002121D9E4C44F8123010BD01469B4867
:10391000006880B200EBC100994A32F8100080B212
:10392000704701469548006880B200EBC100001D59
:10393000934A32F8100080B2704730B50B46012B25
:103940001FD18E49096889B201EBC001891C8C4DD9
:1039500005EB41043E2A0BDD511112F01F0F01D17E
:103960004D1EA9B24FF4004545EA8125256007E0C8
:10397000511012F0010F01D04D1CA9B28D0225602B
:103980000AE0022B08D17D49096889B201EBC00128
:10399000891C7B4C44F81120012B1FD17749096801
:1039A00089B201EBC001891D754D05EB41043E2A2A
:1039B0000BDD511112F01F0F01D14D1EA9B24FF4B2
:1039C000004545EA8125256007E0511012F0010FFE
:1039D00001D04D1CA9B28D0225600AE0022B08D14E
:1039E0006649096889B201EBC001891D644C44F83D
:1039F000112030BD30B5034601291FD15F48006852
:103A000080B200EBC300801C5D4D05EB40043E2AF4
:103A10000BDD501112F01F0F01D1451EA8B24FF45B
:103A2000004545EA8025256007E0501012F0010F9F
:103A300001D0451CA8B2850225600AE0022908D100
:103A40004E48006880B200EBC300801C4C4C44F828
:103A5000102030BD30B5034601291FD1474800680A
:103A600080B200EBC300801D454D05EB40043E2AAB
:103A70000BDD501112F01F0F01D1451EA8B24FF4FB
:103A8000004545EA8025256007E0501012F0010F3F
:103A900001D0451CA8B2850225600AE0022908D1A0
:103AA0003648006880B200EBC300801D344C44F8F7
:103AB000102030BD01463148006880B200EBC100E3
:103AC000801C2F4A32F81000C0F3090070470146ED
:103AD0002A48006880B200EBC100801D284A32F8F5
:103AE0001000C0F30900704701462448006880B206
:103AF00000EBC100801D224A32F8100010F47C4F08
:103B000001D0012070471D48006880B200EBC10061
:103B1000801C1B4A32F810008005800D01D0022065
:103B2000F0E70020EEE701290DD1144A503A52F88F
:103B3000202048F68F731A4042F040020F4B503B52
:103B400043F820200EE002290CD10C4A503A52F8DA
:103B5000202048F68F731A4042F48042074B503BB6
:103B600043F820207047024641EA02207047014690
:103B7000CAB20B1243EA022070470000505C0040BA
:103B800000600040D2B201E000F8012B491EFBD2D8
:103B900070470022F6E710B513460A460446194658
:103BA000FFF7F0FF204610BD2DE9F04D81EA030438
:103BB00004F0004B21F0004514464FF0000A23F0BA
:103BC000004150EA050220D054EA01021DD0C5F39D
:103BD0000A570246C5F31303C1F31300C1F30A5693
:103BE00040F4801543F48013A7EB0608101BD6465B
:103BF00008F2FD3873EB050002D308F1010801E07B
:103C000092185B41B8F1000F03DA00200146BDE8CD
:103C1000F08D00204FF48011064684460EE0171BFD
:103C200073EB050705D3121B63EB050306434CEA50
:103C3000010C49084FEA300092185B4150EA010735
:103C4000EDD152EA030012D082EA040083EA0501B2
:103C5000084303D100224FF0004308E0101BAB41A2
:103C600002D20122002302E06FF0010253101AEB8E
:103C700006004CEB085110EB0A0041EB0B01BDE8CC
:103C8000F04D00F079B80EB5C10F80EAE07008443D
:103C9000CA07002140F233438DE80E000A460B4666
:103CA00000F077F803B000BD01F0004330B421F01C
:103CB000004150EA010206D00A0DA2F56072C1F37C
:103CC0001301002A02DC30BC00207047440F44EA94
:103CD000C104C100E01830BC00EBC25000F016B8BF
:103CE00030B50B46014600202022012409E021FACC
:103CF00002F59D4205D303FA02F5491B04FA02F5C9
:103D00002844151EA2F10102F1DC30BD0029A8BF34
:103D10007047401C490008BF20F00100704710B4F4
:103D2000B0FA80FC00FA0CF050EA010404BF10BCA9
:103D3000704749B1CCF1200421FA04F411FA0CF1D6
:103D400018BF012121430843A3EB0C01CB1D010641
:103D5000000A002BBEBF002010BC704700EBC35010
:103D600010440029A4BF10BC7047401C490008BF84
:103D700020F0010010BC704710B5002B08DA401C81
:103D800041F1000192185B411A4301D120F001007A
:103D900010BD2DE9F04D92469B4611B1B1FA81F26A
:103DA00002E0B0FA80F22032904600F057F8044664
:103DB0000F4640EA0A0041EA0B0153465A460843BF
:103DC00003D120463946BDE8F08D114653EA010083
:103DD00015D0C8F14002504600F04FF805460E4697
:103DE00050465946424600F039F8084301D00120B8
:103DF00000E00020054346EAE0762C4337430A986A
:103E00004FEA4453A0EB08004FEAD4240A304FF0A5
:103E1000000244EA47544FEAD72502D50020014664
:103E2000D1E7010510196941DDE90845001969412B
:103E3000BDE8F04DA0E70000064C074D06E0E06845
:103E400040F0010394E8070098471034AC42F6D3E1
:103E5000FCF772F91441000834410008202A04DB01
:103E6000203A00FA02F1002070479140C2F120038D
:103E700020FA03F3194390407047202A04DB203ACC
:103E800021FA02F00021704721FA02F3D040C2F17A
:103E90002002914008431946704770B501EB0204B7
:103EA00010F8015B15F0070301D110F8013B2A114E
:103EB00006D110F8012B03E010F8016B01F8016B3B
:103EC0005B1EF9D12B0705D40023521E0FD401F835
:103ED000013BFAE710F8013B02F10202A1EB0303F8
:103EE00003E013F8015B01F8015B521EF9D5A14212
:103EF000D6D3002070BD00000FB4054B10B503A948
:103F0000044A029800F018F810BC5DF814FB000099
:103F1000610500085C01002002E008C8121F08C10A
:103F2000002AFAD170477047002001E001C1121F3A
:103F3000002AFBD1704700002DE9FF4F89B09B4656
:103F40000446002597E0252833D10027641C4E49FC
:103F5000B84601222378203B02FA03F0084202D03F
:103F60000743641CF6E720782E2819D114F8010FB6
:103F700047F004072A280ED06FF02F022078A0F116
:103F8000300109290CD808EB880102EB410100EB54
:103F90000108641CF2E70A98641C50F8048B0A902C
:103FA000207800286BD0642808D0692806D07528AE
:103FB00020D05A460B9990476D1C5BE00A994FF050
:103FC0000A0901C90A91002804DAC0F100004FF083
:103FD0002D0102E0390504D52B218DF82010012197
:103FE00003E0F90704D02021F7E78A4608AE0EE087
:103FF0000021FAE70A994FF00A0901C90A91F7E787
:104000004946FFF76DFE01F1300106F8011D002859
:10401000F6D1ADEB060000F12009780701D44FF08E
:104020000108C84502DDA8EB090000E00020804639
:10403000002706E008A85A46C05D0B9990476D1C02
:104040007F1C5745F6DB04E030205A460B99904719
:104050006D1CB8F10001A8F10108F5DC05E016F8C7
:10406000010B5A460B9990476D1CB9F10001A9F15B
:104070000109F4DC641C207800287FF464AF0DB0E3
:104080002846BDE8F08F0000092801001201000257
:10409000000000408304505700030102030109029D
:1040A0002900010100C032090400000203000000E1
:1040B00009211001000122210007058203250020AB
:1040C00007050103250010058C0901A1010903154D
:1040D000002600FF750895258102090415002600B9
:1040E000FF750895259102C00403090414034D00CF
:1040F00079005500530042005F0048004900440029
:10410000120342007900200044005A0035003600B6
:104110003100000034410008000000206001000070
:104120009A3E0008C8410008600100201007000006
:10413000283F000891141A0378A902F113CB2F1419
:1041400008070D2A0808E9040B14E90C1829044192
:1041500023030113210E1B085304131B0F1B081DFF
:10416000041A4F041ACF04132B101B08EF081AFD72
:10417000041A0B0C415A40701A03140916581A13EA
:104180001C138C403308121A9E0832291AC70832B1
:10419000211AB00832091AE80832041AEC0842144D
:1041A0004A4130191CB3201A199F01152D01020331
:1041B0000404100906070809020406082BA24A4F46
:0841C000791C29180120000000
:0400000508000131BD
:00000001FF
